{
  "_format": "hh-sol-artifact-1",
  "contractName": "MyEpicNFT",
  "sourceName": "contracts/MyEpicNFT.sol",
  "abi": [
    {
      "inputs": [
        {
          "internalType": "uint256",
          "name": "_totalSupply",
          "type": "uint256"
        }
      ],
      "stateMutability": "nonpayable",
      "type": "constructor"
    },
    {
      "anonymous": false,
      "inputs": [
        {
          "indexed": true,
          "internalType": "address",
          "name": "owner",
          "type": "address"
        },
        {
          "indexed": true,
          "internalType": "address",
          "name": "approved",
          "type": "address"
        },
        {
          "indexed": true,
          "internalType": "uint256",
          "name": "tokenId",
          "type": "uint256"
        }
      ],
      "name": "Approval",
      "type": "event"
    },
    {
      "anonymous": false,
      "inputs": [
        {
          "indexed": true,
          "internalType": "address",
          "name": "owner",
          "type": "address"
        },
        {
          "indexed": true,
          "internalType": "address",
          "name": "operator",
          "type": "address"
        },
        {
          "indexed": false,
          "internalType": "bool",
          "name": "approved",
          "type": "bool"
        }
      ],
      "name": "ApprovalForAll",
      "type": "event"
    },
    {
      "anonymous": false,
      "inputs": [
        {
          "indexed": false,
          "internalType": "address",
          "name": "sender",
          "type": "address"
        },
        {
          "indexed": false,
          "internalType": "uint256",
          "name": "tokenId",
          "type": "uint256"
        }
      ],
      "name": "NewEpicNFTMinted",
      "type": "event"
    },
    {
      "anonymous": false,
      "inputs": [
        {
          "indexed": true,
          "internalType": "address",
          "name": "from",
          "type": "address"
        },
        {
          "indexed": true,
          "internalType": "address",
          "name": "to",
          "type": "address"
        },
        {
          "indexed": true,
          "internalType": "uint256",
          "name": "tokenId",
          "type": "uint256"
        }
      ],
      "name": "Transfer",
      "type": "event"
    },
    {
      "inputs": [
        {
          "internalType": "address",
          "name": "to",
          "type": "address"
        },
        {
          "internalType": "uint256",
          "name": "tokenId",
          "type": "uint256"
        }
      ],
      "name": "approve",
      "outputs": [],
      "stateMutability": "nonpayable",
      "type": "function"
    },
    {
      "inputs": [
        {
          "internalType": "address",
          "name": "owner",
          "type": "address"
        }
      ],
      "name": "balanceOf",
      "outputs": [
        {
          "internalType": "uint256",
          "name": "",
          "type": "uint256"
        }
      ],
      "stateMutability": "view",
      "type": "function"
    },
    {
      "inputs": [
        {
          "internalType": "uint256",
          "name": "tokenId",
          "type": "uint256"
        }
      ],
      "name": "getApproved",
      "outputs": [
        {
          "internalType": "address",
          "name": "",
          "type": "address"
        }
      ],
      "stateMutability": "view",
      "type": "function"
    },
    {
      "inputs": [],
      "name": "getCurrentAmountOfNFTsMinted",
      "outputs": [
        {
          "internalType": "uint256",
          "name": "",
          "type": "uint256"
        }
      ],
      "stateMutability": "view",
      "type": "function"
    },
    {
      "inputs": [],
      "name": "getMaxAmountOfNFTsToMinted",
      "outputs": [
        {
          "internalType": "uint256",
          "name": "",
          "type": "uint256"
        }
      ],
      "stateMutability": "view",
      "type": "function"
    },
    {
      "inputs": [
        {
          "internalType": "address",
          "name": "owner",
          "type": "address"
        },
        {
          "internalType": "address",
          "name": "operator",
          "type": "address"
        }
      ],
      "name": "isApprovedForAll",
      "outputs": [
        {
          "internalType": "bool",
          "name": "",
          "type": "bool"
        }
      ],
      "stateMutability": "view",
      "type": "function"
    },
    {
      "inputs": [],
      "name": "makeAnEpicNFT",
      "outputs": [],
      "stateMutability": "nonpayable",
      "type": "function"
    },
    {
      "inputs": [],
      "name": "name",
      "outputs": [
        {
          "internalType": "string",
          "name": "",
          "type": "string"
        }
      ],
      "stateMutability": "view",
      "type": "function"
    },
    {
      "inputs": [
        {
          "internalType": "uint256",
          "name": "tokenId",
          "type": "uint256"
        }
      ],
      "name": "ownerOf",
      "outputs": [
        {
          "internalType": "address",
          "name": "",
          "type": "address"
        }
      ],
      "stateMutability": "view",
      "type": "function"
    },
    {
      "inputs": [
        {
          "internalType": "uint256",
          "name": "tokenId",
          "type": "uint256"
        }
      ],
      "name": "pickRandomFirstWord",
      "outputs": [
        {
          "internalType": "string",
          "name": "",
          "type": "string"
        }
      ],
      "stateMutability": "view",
      "type": "function"
    },
    {
      "inputs": [
        {
          "internalType": "uint256",
          "name": "tokenId",
          "type": "uint256"
        }
      ],
      "name": "pickRandomSecondWord",
      "outputs": [
        {
          "internalType": "string",
          "name": "",
          "type": "string"
        }
      ],
      "stateMutability": "view",
      "type": "function"
    },
    {
      "inputs": [
        {
          "internalType": "uint256",
          "name": "tokenId",
          "type": "uint256"
        }
      ],
      "name": "pickRandomThirdWord",
      "outputs": [
        {
          "internalType": "string",
          "name": "",
          "type": "string"
        }
      ],
      "stateMutability": "view",
      "type": "function"
    },
    {
      "inputs": [
        {
          "internalType": "address",
          "name": "from",
          "type": "address"
        },
        {
          "internalType": "address",
          "name": "to",
          "type": "address"
        },
        {
          "internalType": "uint256",
          "name": "tokenId",
          "type": "uint256"
        }
      ],
      "name": "safeTransferFrom",
      "outputs": [],
      "stateMutability": "nonpayable",
      "type": "function"
    },
    {
      "inputs": [
        {
          "internalType": "address",
          "name": "from",
          "type": "address"
        },
        {
          "internalType": "address",
          "name": "to",
          "type": "address"
        },
        {
          "internalType": "uint256",
          "name": "tokenId",
          "type": "uint256"
        },
        {
          "internalType": "bytes",
          "name": "_data",
          "type": "bytes"
        }
      ],
      "name": "safeTransferFrom",
      "outputs": [],
      "stateMutability": "nonpayable",
      "type": "function"
    },
    {
      "inputs": [
        {
          "internalType": "address",
          "name": "operator",
          "type": "address"
        },
        {
          "internalType": "bool",
          "name": "approved",
          "type": "bool"
        }
      ],
      "name": "setApprovalForAll",
      "outputs": [],
      "stateMutability": "nonpayable",
      "type": "function"
    },
    {
      "inputs": [
        {
          "internalType": "bytes4",
          "name": "interfaceId",
          "type": "bytes4"
        }
      ],
      "name": "supportsInterface",
      "outputs": [
        {
          "internalType": "bool",
          "name": "",
          "type": "bool"
        }
      ],
      "stateMutability": "view",
      "type": "function"
    },
    {
      "inputs": [],
      "name": "symbol",
      "outputs": [
        {
          "internalType": "string",
          "name": "",
          "type": "string"
        }
      ],
      "stateMutability": "view",
      "type": "function"
    },
    {
      "inputs": [
        {
          "internalType": "uint256",
          "name": "tokenId",
          "type": "uint256"
        }
      ],
      "name": "tokenURI",
      "outputs": [
        {
          "internalType": "string",
          "name": "",
          "type": "string"
        }
      ],
      "stateMutability": "view",
      "type": "function"
    },
    {
      "inputs": [
        {
          "internalType": "address",
          "name": "from",
          "type": "address"
        },
        {
          "internalType": "address",
          "name": "to",
          "type": "address"
        },
        {
          "internalType": "uint256",
          "name": "tokenId",
          "type": "uint256"
        }
      ],
      "name": "transferFrom",
      "outputs": [],
      "stateMutability": "nonpayable",
      "type": "function"
    }
  ],
  "bytecode": "0x608060405260405180610160016040528061012f81526020016200435661012f91396009908051906020019062000038929190620006ab565b506040518060c001604052806040518060400160405280600681526020017f504952554c4f000000000000000000000000000000000000000000000000000081525081526020016040518060400160405280600681526020017f4d554e454341000000000000000000000000000000000000000000000000000081525081526020016040518060400160405280600981526020017f44524147554e534f4e000000000000000000000000000000000000000000000081525081526020016040518060400160405280600481526020017f434150490000000000000000000000000000000000000000000000000000000081525081526020016040518060400160405280600481526020017f424152410000000000000000000000000000000000000000000000000000000081525081526020016040518060400160405280600481526020017f4b414b4100000000000000000000000000000000000000000000000000000000815250815250600a906006620001b69291906200073c565b506040518060c001604052806040518060400160405280600a81526020017f4a4156415343524950540000000000000000000000000000000000000000000081525081526020016040518060400160405280600181526020017f430000000000000000000000000000000000000000000000000000000000000081525081526020016040518060400160405280600281526020017f474f00000000000000000000000000000000000000000000000000000000000081525081526020016040518060400160405280600681526020017f505954484f4e000000000000000000000000000000000000000000000000000081525081526020016040518060400160405280600a81526020017f545950455343524950540000000000000000000000000000000000000000000081525081526020016040518060400160405280600481526020017f5255425900000000000000000000000000000000000000000000000000000000815250815250600b906006620003349291906200073c565b506040518060c001604052806040518060400160405280600681526020017f434f55525345000000000000000000000000000000000000000000000000000081525081526020016040518060400160405280600881526020017f4c4541524e494e4700000000000000000000000000000000000000000000000081525081526020016040518060400160405280600481526020017f424f4f4b0000000000000000000000000000000000000000000000000000000081525081526020016040518060400160405280600881526020017f424f4f5443414d5000000000000000000000000000000000000000000000000081525081526020016040518060400160405280600881526020017f545241494e45455200000000000000000000000000000000000000000000000081525081526020016040518060400160405280600681526020017f53454e494f520000000000000000000000000000000000000000000000000000815250815250600c906006620004b29291906200073c565b50348015620004c057600080fd5b5060405162004485380380620044858339818101604052810190620004e6919062000847565b6040518060400160405280600981526020017f5371756172654e465400000000000000000000000000000000000000000000008152506040518060400160405280600681526020017f535155415245000000000000000000000000000000000000000000000000000081525081600090805190602001906200056a929190620006ab565b50806001908051906020019062000583929190620006ab565b50505080600881905550620005d86040518060400160405280601e81526020017f54686973206973206d79204e465420636f6e74726163742e20576f6168210000815250620005df60201b620012e31760201c565b50620009c4565b6200067f81604051602401620005f69190620008b4565b6040516020818303038152906040527f41304fac000000000000000000000000000000000000000000000000000000007bffffffffffffffffffffffffffffffffffffffffffffffffffffffff19166020820180517bffffffffffffffffffffffffffffffffffffffffffffffffffffffff83818316178352505050506200068260201b60201c565b50565b60008151905060006a636f6e736f6c652e6c6f679050602083016000808483855afa5050505050565b828054620006b99062000934565b90600052602060002090601f016020900481019282620006dd576000855562000729565b82601f10620006f857805160ff191683800117855562000729565b8280016001018555821562000729579182015b82811115620007285782518255916020019190600101906200070b565b5b509050620007389190620007a3565b5090565b82805482825590600052602060002090810192821562000790579160200282015b828111156200078f5782518290805190602001906200077e929190620006ab565b50916020019190600101906200075d565b5b5090506200079f9190620007c2565b5090565b5b80821115620007be576000816000905550600101620007a4565b5090565b5b80821115620007e65760008181620007dc9190620007ea565b50600101620007c3565b5090565b508054620007f89062000934565b6000825580601f106200080c57506200082d565b601f0160209004906000526020600020908101906200082c9190620007a3565b5b50565b6000815190506200084181620009aa565b92915050565b6000602082840312156200085a57600080fd5b60006200086a8482850162000830565b91505092915050565b60006200088082620008d8565b6200088c8185620008e3565b93506200089e818560208601620008fe565b620008a98162000999565b840191505092915050565b60006020820190508181036000830152620008d0818462000873565b905092915050565b600081519050919050565b600082825260208201905092915050565b6000819050919050565b60005b838110156200091e57808201518184015260208101905062000901565b838111156200092e576000848401525b50505050565b600060028204905060018216806200094d57607f821691505b602082108114156200096457620009636200096a565b5b50919050565b7f4e487b7100000000000000000000000000000000000000000000000000000000600052602260045260246000fd5b6000601f19601f8301169050919050565b620009b581620008f4565b8114620009c157600080fd5b50565b61398280620009d46000396000f3fe608060405234801561001057600080fd5b50600436106101215760003560e01c806370a08231116100ad578063c575757a11610071578063c575757a1461032c578063c87b56dd1461035c578063de9d132f1461038c578063e4d6dad914610396578063e985e9c5146103b457610121565b806370a082311461027657806395d89b41146102a6578063a22cb465146102c4578063b187301f146102e0578063b88d4fde1461031057610121565b80630e34088d116100f45780630e34088d146101c057806323b872dd146101de5780632de38d68146101fa57806342842e0e1461022a5780636352211e1461024657610121565b806301ffc9a71461012657806306fdde0314610156578063081812fc14610174578063095ea7b3146101a4575b600080fd5b610140600480360381019061013b9190612576565b6103e4565b60405161014d91906131d8565b60405180910390f35b61015e6104c6565b60405161016b91906131f3565b60405180910390f35b61018e600480360381019061018991906125c8565b610558565b60405161019b9190613148565b60405180910390f35b6101be60048036038101906101b9919061253a565b6105dd565b005b6101c86106f5565b6040516101d59190613473565b60405180910390f35b6101f860048036038101906101f39190612434565b610706565b005b610214600480360381019061020f91906125c8565b610766565b60405161022191906131f3565b60405180910390f35b610244600480360381019061023f9190612434565b610884565b005b610260600480360381019061025b91906125c8565b6108a4565b60405161026d9190613148565b60405180910390f35b610290600480360381019061028b91906123cf565b610956565b60405161029d9190613473565b60405180910390f35b6102ae610a0e565b6040516102bb91906131f3565b60405180910390f35b6102de60048036038101906102d991906124fe565b610aa0565b005b6102fa60048036038101906102f591906125c8565b610c21565b60405161030791906131f3565b60405180910390f35b61032a60048036038101906103259190612483565b610d3f565b005b610346600480360381019061034191906125c8565b610da1565b60405161035391906131f3565b60405180910390f35b610376600480360381019061037191906125c8565b610ebf565b60405161038391906131f3565b60405180910390f35b610394611011565b005b61039e611245565b6040516103ab9190613473565b60405180910390f35b6103ce60048036038101906103c991906123f8565b61124f565b6040516103db91906131d8565b60405180910390f35b60007f80ac58cd000000000000000000000000000000000000000000000000000000007bffffffffffffffffffffffffffffffffffffffffffffffffffffffff1916827bffffffffffffffffffffffffffffffffffffffffffffffffffffffff191614806104af57507f5b5e139f000000000000000000000000000000000000000000000000000000007bffffffffffffffffffffffffffffffffffffffffffffffffffffffff1916827bffffffffffffffffffffffffffffffffffffffffffffffffffffffff1916145b806104bf57506104be8261137c565b5b9050919050565b6060600080546104d590613712565b80601f016020809104026020016040519081016040528092919081815260200182805461050190613712565b801561054e5780601f106105235761010080835404028352916020019161054e565b820191906000526020600020905b81548152906001019060200180831161053157829003601f168201915b5050505050905090565b6000610563826113e6565b6105a2576040517f08c379a0000000000000000000000000000000000000000000000000000000008152600401610599906133b3565b60405180910390fd5b6004600083815260200190815260200160002060009054906101000a900473ffffffffffffffffffffffffffffffffffffffff169050919050565b60006105e8826108a4565b90508073ffffffffffffffffffffffffffffffffffffffff168373ffffffffffffffffffffffffffffffffffffffff161415610659576040517f08c379a000000000000000000000000000000000000000000000000000000000815260040161065090613413565b60405180910390fd5b8073ffffffffffffffffffffffffffffffffffffffff16610678611452565b73ffffffffffffffffffffffffffffffffffffffff1614806106a757506106a6816106a1611452565b61124f565b5b6106e6576040517f08c379a00000000000000000000000000000000000000000000000000000000081526004016106dd906132f3565b60405180910390fd5b6106f0838361145a565b505050565b60006107016007611513565b905090565b610717610711611452565b82611521565b610756576040517f08c379a000000000000000000000000000000000000000000000000000000000815260040161074d90613453565b60405180910390fd5b6107618383836115ff565b505050565b6060600061079a6107768461185b565b6040516020016107869190613104565b604051602081830303815290604052611a08565b9050600a80549050816107ad919061378d565b9050600a81815481106107e9577f4e487b7100000000000000000000000000000000000000000000000000000000600052603260045260246000fd5b9060005260206000200180546107fe90613712565b80601f016020809104026020016040519081016040528092919081815260200182805461082a90613712565b80156108775780601f1061084c57610100808354040283529160200191610877565b820191906000526020600020905b81548152906001019060200180831161085a57829003601f168201915b5050505050915050919050565b61089f83838360405180602001604052806000815250610d3f565b505050565b6000806002600084815260200190815260200160002060009054906101000a900473ffffffffffffffffffffffffffffffffffffffff169050600073ffffffffffffffffffffffffffffffffffffffff168173ffffffffffffffffffffffffffffffffffffffff16141561094d576040517f08c379a000000000000000000000000000000000000000000000000000000000815260040161094490613333565b60405180910390fd5b80915050919050565b60008073ffffffffffffffffffffffffffffffffffffffff168273ffffffffffffffffffffffffffffffffffffffff1614156109c7576040517f08c379a00000000000000000000000000000000000000000000000000000000081526004016109be90613313565b60405180910390fd5b600360008373ffffffffffffffffffffffffffffffffffffffff1673ffffffffffffffffffffffffffffffffffffffff168152602001908152602001600020549050919050565b606060018054610a1d90613712565b80601f0160208091040260200160405190810160405280929190818152602001828054610a4990613712565b8015610a965780601f10610a6b57610100808354040283529160200191610a96565b820191906000526020600020905b815481529060010190602001808311610a7957829003601f168201915b5050505050905090565b610aa8611452565b73ffffffffffffffffffffffffffffffffffffffff168273ffffffffffffffffffffffffffffffffffffffff161415610b16576040517f08c379a0000000000000000000000000000000000000000000000000000000008152600401610b0d906132b3565b60405180910390fd5b8060056000610b23611452565b73ffffffffffffffffffffffffffffffffffffffff1673ffffffffffffffffffffffffffffffffffffffff16815260200190815260200160002060008473ffffffffffffffffffffffffffffffffffffffff1673ffffffffffffffffffffffffffffffffffffffff16815260200190815260200160002060006101000a81548160ff0219169083151502179055508173ffffffffffffffffffffffffffffffffffffffff16610bd0611452565b73ffffffffffffffffffffffffffffffffffffffff167f17307eab39ab6107e8899845ad3d59bd9653f200f220920489ca2b5937696c3183604051610c1591906131d8565b60405180910390a35050565b60606000610c55610c318461185b565b604051602001610c41919061309d565b604051602081830303815290604052611a08565b9050600b8054905081610c68919061378d565b9050600b8181548110610ca4577f4e487b7100000000000000000000000000000000000000000000000000000000600052603260045260246000fd5b906000526020600020018054610cb990613712565b80601f0160208091040260200160405190810160405280929190818152602001828054610ce590613712565b8015610d325780601f10610d0757610100808354040283529160200191610d32565b820191906000526020600020905b815481529060010190602001808311610d1557829003601f168201915b5050505050915050919050565b610d50610d4a611452565b83611521565b610d8f576040517f08c379a0000000000000000000000000000000000000000000000000000000008152600401610d8690613453565b60405180910390fd5b610d9b84848484611a3b565b50505050565b60606000610dd5610db18461185b565b604051602001610dc1919061307b565b604051602081830303815290604052611a08565b9050600c8054905081610de8919061378d565b9050600c8181548110610e24577f4e487b7100000000000000000000000000000000000000000000000000000000600052603260045260246000fd5b906000526020600020018054610e3990613712565b80601f0160208091040260200160405190810160405280929190818152602001828054610e6590613712565b8015610eb25780601f10610e8757610100808354040283529160200191610eb2565b820191906000526020600020905b815481529060010190602001808311610e9557829003601f168201915b5050505050915050919050565b6060610eca826113e6565b610f09576040517f08c379a0000000000000000000000000000000000000000000000000000000008152600401610f0090613393565b60405180910390fd5b6000600660008481526020019081526020016000208054610f2990613712565b80601f0160208091040260200160405190810160405280929190818152602001828054610f5590613712565b8015610fa25780601f10610f7757610100808354040283529160200191610fa2565b820191906000526020600020905b815481529060010190602001808311610f8557829003601f168201915b505050505090506000610fb3611a97565b9050600081511415610fc957819250505061100c565b600082511115610ffe578082604051602001610fe6929190612ff7565b6040516020818303038152906040529250505061100c565b61100784611aae565b925050505b919050565b61101b6007611513565b6008541161105e576040517f08c379a000000000000000000000000000000000000000000000000000000000815260040161105590613433565b60405180910390fd5b600061106a6007611513565b9050600061107782610766565b9050600061108483610c21565b9050600061109184610da1565b905060008383836040516020016110aa9392919061301b565b604051602081830303815290604052905060006009826040516020016110d192919061304c565b60405160208183030381529060405290506000611116836110f184611b55565b6040516020016111029291906130bf565b604051602081830303815290604052611b55565b905060008160405160200161112b9190613126565b604051602081830303815290604052905061117a6040518060400160405280601581526020017f0a2d2d2d2d2d2d2d2d2d2d2d2d2d2d2d2d2d2d2d2d00000000000000000000008152506112e3565b611183816112e3565b6111c16040518060400160405280601581526020017f2d2d2d2d2d2d2d2d2d2d2d2d2d2d2d2d2d2d2d2d0a00000000000000000000008152506112e3565b6111cb3389611d13565b6111d58882611d31565b6111df6007611da5565b6112026040518060600160405280602581526020016138e8602591398933611dbb565b7febb98688741ffa4c7589bf325de30cf7becb63de567842e1ccdb6cb949fdc82c33896040516112339291906131af565b60405180910390a15050505050505050565b6000600854905090565b6000600560008473ffffffffffffffffffffffffffffffffffffffff1673ffffffffffffffffffffffffffffffffffffffff16815260200190815260200160002060008373ffffffffffffffffffffffffffffffffffffffff1673ffffffffffffffffffffffffffffffffffffffff16815260200190815260200160002060009054906101000a900460ff16905092915050565b611379816040516024016112f791906131f3565b6040516020818303038152906040527f41304fac000000000000000000000000000000000000000000000000000000007bffffffffffffffffffffffffffffffffffffffffffffffffffffffff19166020820180517bffffffffffffffffffffffffffffffffffffffffffffffffffffffff8381831617835250505050611e5a565b50565b60007f01ffc9a7000000000000000000000000000000000000000000000000000000007bffffffffffffffffffffffffffffffffffffffffffffffffffffffff1916827bffffffffffffffffffffffffffffffffffffffffffffffffffffffff1916149050919050565b60008073ffffffffffffffffffffffffffffffffffffffff166002600084815260200190815260200160002060009054906101000a900473ffffffffffffffffffffffffffffffffffffffff1673ffffffffffffffffffffffffffffffffffffffff1614159050919050565b600033905090565b816004600083815260200190815260200160002060006101000a81548173ffffffffffffffffffffffffffffffffffffffff021916908373ffffffffffffffffffffffffffffffffffffffff160217905550808273ffffffffffffffffffffffffffffffffffffffff166114cd836108a4565b73ffffffffffffffffffffffffffffffffffffffff167f8c5be1e5ebec7d5bd14f71427d1e84f3dd0314c0f7b2291e5b200ac8c7c3b92560405160405180910390a45050565b600081600001549050919050565b600061152c826113e6565b61156b576040517f08c379a0000000000000000000000000000000000000000000000000000000008152600401611562906132d3565b60405180910390fd5b6000611576836108a4565b90508073ffffffffffffffffffffffffffffffffffffffff168473ffffffffffffffffffffffffffffffffffffffff1614806115e557508373ffffffffffffffffffffffffffffffffffffffff166115cd84610558565b73ffffffffffffffffffffffffffffffffffffffff16145b806115f657506115f5818561124f565b5b91505092915050565b8273ffffffffffffffffffffffffffffffffffffffff1661161f826108a4565b73ffffffffffffffffffffffffffffffffffffffff1614611675576040517f08c379a000000000000000000000000000000000000000000000000000000000815260040161166c906133d3565b60405180910390fd5b600073ffffffffffffffffffffffffffffffffffffffff168273ffffffffffffffffffffffffffffffffffffffff1614156116e5576040517f08c379a00000000000000000000000000000000000000000000000000000000081526004016116dc90613293565b60405180910390fd5b6116f0838383611e83565b6116fb60008261145a565b6001600360008573ffffffffffffffffffffffffffffffffffffffff1673ffffffffffffffffffffffffffffffffffffffff168152602001908152602001600020600082825461174b9190613628565b925050819055506001600360008473ffffffffffffffffffffffffffffffffffffffff1673ffffffffffffffffffffffffffffffffffffffff16815260200190815260200160002060008282546117a29190613547565b92505081905550816002600083815260200190815260200160002060006101000a81548173ffffffffffffffffffffffffffffffffffffffff021916908373ffffffffffffffffffffffffffffffffffffffff160217905550808273ffffffffffffffffffffffffffffffffffffffff168473ffffffffffffffffffffffffffffffffffffffff167fddf252ad1be2c89b69c2b068fc378daa952ba7f163c4a11628f55a4df523b3ef60405160405180910390a4505050565b606060008214156118a3576040518060400160405280600181526020017f30000000000000000000000000000000000000000000000000000000000000008152509050611a03565b600082905060005b600082146118d55780806118be90613744565b915050600a826118ce919061359d565b91506118ab565b60008167ffffffffffffffff811115611917577f4e487b7100000000000000000000000000000000000000000000000000000000600052604160045260246000fd5b6040519080825280601f01601f1916602001820160405280156119495781602001600182028036833780820191505090505b5090505b600085146119fc576001826119629190613628565b9150600a85611971919061378d565b603061197d9190613547565b60f81b8183815181106119b9577f4e487b7100000000000000000000000000000000000000000000000000000000600052603260045260246000fd5b60200101907effffffffffffffffffffffffffffffffffffffffffffffffffffffffffffff1916908160001a905350600a856119f5919061359d565b945061194d565b8093505050505b919050565b600081604051602001611a1b9190612fe0565b6040516020818303038152906040528051906020012060001c9050919050565b611a468484846115ff565b611a5284848484611e88565b611a91576040517f08c379a0000000000000000000000000000000000000000000000000000000008152600401611a8890613253565b60405180910390fd5b50505050565b606060405180602001604052806000815250905090565b6060611ab9826113e6565b611af8576040517f08c379a0000000000000000000000000000000000000000000000000000000008152600401611aef906133f3565b60405180910390fd5b6000611b02611a97565b90506000815111611b225760405180602001604052806000815250611b4d565b80611b2c8461185b565b604051602001611b3d929190612ff7565b6040516020818303038152906040525b915050919050565b60606000825190506000811415611b7e5760405180602001604052806000815250915050611d0e565b60006003600283611b8f9190613547565b611b99919061359d565b6004611ba591906135ce565b90506000602082611bb69190613547565b67ffffffffffffffff811115611bf5577f4e487b7100000000000000000000000000000000000000000000000000000000600052604160045260246000fd5b6040519080825280601f01601f191660200182016040528015611c275781602001600182028036833780820191505090505b509050600060405180606001604052806040815260200161390d604091399050600181016020830160005b86811015611ccb5760038101905062ffffff818a015116603f8160121c168401518060081b905060ff603f83600c1c1686015116810190508060081b905060ff603f8360061c1686015116810190508060081b905060ff603f831686015116810190508060e01b90508084526004840193505050611c52565b506003860660018114611ce55760028114611cf557611d00565b613d3d60f01b6002830352611d00565b603d60f81b60018303525b508484525050819450505050505b919050565b611d2d82826040518060200160405280600081525061201f565b5050565b611d3a826113e6565b611d79576040517f08c379a0000000000000000000000000000000000000000000000000000000008152600401611d7090613353565b60405180910390fd5b80600660008481526020019081526020016000209080519060200190611da092919061225b565b505050565b6001816000016000828254019250508190555050565b611e55838383604051602401611dd393929190613215565b6040516020818303038152906040527fe3849f79000000000000000000000000000000000000000000000000000000007bffffffffffffffffffffffffffffffffffffffffffffffffffffffff19166020820180517bffffffffffffffffffffffffffffffffffffffffffffffffffffffff8381831617835250505050611e5a565b505050565b60008151905060006a636f6e736f6c652e6c6f679050602083016000808483855afa5050505050565b505050565b6000611ea98473ffffffffffffffffffffffffffffffffffffffff1661207a565b15612012578373ffffffffffffffffffffffffffffffffffffffff1663150b7a02611ed2611452565b8786866040518563ffffffff1660e01b8152600401611ef49493929190613163565b602060405180830381600087803b158015611f0e57600080fd5b505af1925050508015611f3f57506040513d601f19601f82011682018060405250810190611f3c919061259f565b60015b611fc2573d8060008114611f6f576040519150601f19603f3d011682016040523d82523d6000602084013e611f74565b606091505b50600081511415611fba576040517f08c379a0000000000000000000000000000000000000000000000000000000008152600401611fb190613253565b60405180910390fd5b805181602001fd5b63150b7a0260e01b7bffffffffffffffffffffffffffffffffffffffffffffffffffffffff1916817bffffffffffffffffffffffffffffffffffffffffffffffffffffffff191614915050612017565b600190505b949350505050565b612029838361208d565b6120366000848484611e88565b612075576040517f08c379a000000000000000000000000000000000000000000000000000000000815260040161206c90613253565b60405180910390fd5b505050565b600080823b905060008111915050919050565b600073ffffffffffffffffffffffffffffffffffffffff168273ffffffffffffffffffffffffffffffffffffffff1614156120fd576040517f08c379a00000000000000000000000000000000000000000000000000000000081526004016120f490613373565b60405180910390fd5b612106816113e6565b15612146576040517f08c379a000000000000000000000000000000000000000000000000000000000815260040161213d90613273565b60405180910390fd5b61215260008383611e83565b6001600360008473ffffffffffffffffffffffffffffffffffffffff1673ffffffffffffffffffffffffffffffffffffffff16815260200190815260200160002060008282546121a29190613547565b92505081905550816002600083815260200190815260200160002060006101000a81548173ffffffffffffffffffffffffffffffffffffffff021916908373ffffffffffffffffffffffffffffffffffffffff160217905550808273ffffffffffffffffffffffffffffffffffffffff16600073ffffffffffffffffffffffffffffffffffffffff167fddf252ad1be2c89b69c2b068fc378daa952ba7f163c4a11628f55a4df523b3ef60405160405180910390a45050565b82805461226790613712565b90600052602060002090601f01602090048101928261228957600085556122d0565b82601f106122a257805160ff19168380011785556122d0565b828001600101855582156122d0579182015b828111156122cf5782518255916020019190600101906122b4565b5b5090506122dd91906122e1565b5090565b5b808211156122fa5760008160009055506001016122e2565b5090565b600061231161230c846134bf565b61348e565b90508281526020810184848401111561232957600080fd5b6123348482856136d0565b509392505050565b60008135905061234b8161388b565b92915050565b600081359050612360816138a2565b92915050565b600081359050612375816138b9565b92915050565b60008151905061238a816138b9565b92915050565b600082601f8301126123a157600080fd5b81356123b18482602086016122fe565b91505092915050565b6000813590506123c9816138d0565b92915050565b6000602082840312156123e157600080fd5b60006123ef8482850161233c565b91505092915050565b6000806040838503121561240b57600080fd5b60006124198582860161233c565b925050602061242a8582860161233c565b9150509250929050565b60008060006060848603121561244957600080fd5b60006124578682870161233c565b93505060206124688682870161233c565b9250506040612479868287016123ba565b9150509250925092565b6000806000806080858703121561249957600080fd5b60006124a78782880161233c565b94505060206124b88782880161233c565b93505060406124c9878288016123ba565b925050606085013567ffffffffffffffff8111156124e657600080fd5b6124f287828801612390565b91505092959194509250565b6000806040838503121561251157600080fd5b600061251f8582860161233c565b925050602061253085828601612351565b9150509250929050565b6000806040838503121561254d57600080fd5b600061255b8582860161233c565b925050602061256c858286016123ba565b9150509250929050565b60006020828403121561258857600080fd5b600061259684828501612366565b91505092915050565b6000602082840312156125b157600080fd5b60006125bf8482850161237b565b91505092915050565b6000602082840312156125da57600080fd5b60006125e8848285016123ba565b91505092915050565b6125fa8161365c565b82525050565b6126098161366e565b82525050565b600061261a82613504565b612624818561351a565b93506126348185602086016136df565b61263d8161387a565b840191505092915050565b60006126538261350f565b61265d818561352b565b935061266d8185602086016136df565b6126768161387a565b840191505092915050565b600061268c8261350f565b612696818561353c565b93506126a68185602086016136df565b80840191505092915050565b600081546126bf81613712565b6126c9818661353c565b945060018216600081146126e457600181146126f557612728565b60ff19831686528186019350612728565b6126fe856134ef565b60005b8381101561272057815481890152600182019150602081019050612701565b838801955050505b50505092915050565b600061273e60328361352b565b91507f4552433732313a207472616e7366657220746f206e6f6e20455243373231526560008301527f63656976657220696d706c656d656e74657200000000000000000000000000006020830152604082019050919050565b60006127a4601c8361352b565b91507f4552433732313a20746f6b656e20616c7265616479206d696e746564000000006000830152602082019050919050565b60006127e4600a8361353c565b91507f54484952445f574f5244000000000000000000000000000000000000000000006000830152600a82019050919050565b600061282460248361352b565b91507f4552433732313a207472616e7366657220746f20746865207a65726f2061646460008301527f72657373000000000000000000000000000000000000000000000000000000006020830152604082019050919050565b600061288a60198361352b565b91507f4552433732313a20617070726f766520746f2063616c6c6572000000000000006000830152602082019050919050565b60006128ca60638361353c565b91507f222c20226465736372697074696f6e223a20224120686967686c79206163636c60008301527f61696d656420636f6c6c656374696f6e206f6620737175617265732e222c202260208301527f696d616765223a2022646174613a696d6167652f7376672b786d6c3b6261736560408301527f36342c00000000000000000000000000000000000000000000000000000000006060830152606382019050919050565b600061297c600b8361353c565b91507f5345434f4e445f574f52440000000000000000000000000000000000000000006000830152600b82019050919050565b60006129bc602c8361352b565b91507f4552433732313a206f70657261746f7220717565727920666f72206e6f6e657860008301527f697374656e7420746f6b656e00000000000000000000000000000000000000006020830152604082019050919050565b6000612a22600d8361353c565b91507f3c2f746578743e3c2f7376673e000000000000000000000000000000000000006000830152600d82019050919050565b6000612a6260388361352b565b91507f4552433732313a20617070726f76652063616c6c6572206973206e6f74206f7760008301527f6e6572206e6f7220617070726f76656420666f7220616c6c00000000000000006020830152604082019050919050565b6000612ac8602a8361352b565b91507f4552433732313a2062616c616e636520717565727920666f7220746865207a6560008301527f726f2061646472657373000000000000000000000000000000000000000000006020830152604082019050919050565b6000612b2e60298361352b565b91507f4552433732313a206f776e657220717565727920666f72206e6f6e657869737460008301527f656e7420746f6b656e00000000000000000000000000000000000000000000006020830152604082019050919050565b6000612b94602e8361352b565b91507f45524337323155524953746f726167653a2055524920736574206f66206e6f6e60008301527f6578697374656e7420746f6b656e0000000000000000000000000000000000006020830152604082019050919050565b6000612bfa60028361353c565b91507f227d0000000000000000000000000000000000000000000000000000000000006000830152600282019050919050565b6000612c3a60208361352b565b91507f4552433732313a206d696e7420746f20746865207a65726f20616464726573736000830152602082019050919050565b6000612c7a60318361352b565b91507f45524337323155524953746f726167653a2055524920717565727920666f722060008301527f6e6f6e6578697374656e7420746f6b656e0000000000000000000000000000006020830152604082019050919050565b6000612ce0602c8361352b565b91507f4552433732313a20617070726f76656420717565727920666f72206e6f6e657860008301527f697374656e7420746f6b656e00000000000000000000000000000000000000006020830152604082019050919050565b6000612d4660298361352b565b91507f4552433732313a207472616e73666572206f6620746f6b656e2074686174206960008301527f73206e6f74206f776e00000000000000000000000000000000000000000000006020830152604082019050919050565b6000612dac602f8361352b565b91507f4552433732314d657461646174613a2055524920717565727920666f72206e6f60008301527f6e6578697374656e7420746f6b656e00000000000000000000000000000000006020830152604082019050919050565b6000612e12600a8361353c565b91507f7b226e616d65223a2022000000000000000000000000000000000000000000006000830152600a82019050919050565b6000612e5260218361352b565b91507f4552433732313a20617070726f76616c20746f2063757272656e74206f776e6560008301527f72000000000000000000000000000000000000000000000000000000000000006020830152604082019050919050565b6000612eb8600a8361353c565b91507f46495253545f574f5244000000000000000000000000000000000000000000006000830152600a82019050919050565b6000612ef8601d8361353c565b91507f646174613a6170706c69636174696f6e2f6a736f6e3b6261736536342c0000006000830152601d82019050919050565b6000612f3860128361352b565b91507f576520617265206f7574206f66204e46547300000000000000000000000000006000830152602082019050919050565b6000612f7860318361352b565b91507f4552433732313a207472616e736665722063616c6c6572206973206e6f74206f60008301527f776e6572206e6f7220617070726f7665640000000000000000000000000000006020830152604082019050919050565b612fda816136c6565b82525050565b6000612fec8284612681565b915081905092915050565b60006130038285612681565b915061300f8284612681565b91508190509392505050565b60006130278286612681565b91506130338285612681565b915061303f8284612681565b9150819050949350505050565b600061305882856126b2565b91506130648284612681565b915061306f82612a15565b91508190509392505050565b6000613086826127d7565b91506130928284612681565b915081905092915050565b60006130a88261296f565b91506130b48284612681565b915081905092915050565b60006130ca82612e05565b91506130d68285612681565b91506130e1826128bd565b91506130ed8284612681565b91506130f882612bed565b91508190509392505050565b600061310f82612eab565b915061311b8284612681565b915081905092915050565b600061313182612eeb565b915061313d8284612681565b915081905092915050565b600060208201905061315d60008301846125f1565b92915050565b600060808201905061317860008301876125f1565b61318560208301866125f1565b6131926040830185612fd1565b81810360608301526131a4818461260f565b905095945050505050565b60006040820190506131c460008301856125f1565b6131d16020830184612fd1565b9392505050565b60006020820190506131ed6000830184612600565b92915050565b6000602082019050818103600083015261320d8184612648565b905092915050565b6000606082019050818103600083015261322f8186612648565b905061323e6020830185612fd1565b61324b60408301846125f1565b949350505050565b6000602082019050818103600083015261326c81612731565b9050919050565b6000602082019050818103600083015261328c81612797565b9050919050565b600060208201905081810360008301526132ac81612817565b9050919050565b600060208201905081810360008301526132cc8161287d565b9050919050565b600060208201905081810360008301526132ec816129af565b9050919050565b6000602082019050818103600083015261330c81612a55565b9050919050565b6000602082019050818103600083015261332c81612abb565b9050919050565b6000602082019050818103600083015261334c81612b21565b9050919050565b6000602082019050818103600083015261336c81612b87565b9050919050565b6000602082019050818103600083015261338c81612c2d565b9050919050565b600060208201905081810360008301526133ac81612c6d565b9050919050565b600060208201905081810360008301526133cc81612cd3565b9050919050565b600060208201905081810360008301526133ec81612d39565b9050919050565b6000602082019050818103600083015261340c81612d9f565b9050919050565b6000602082019050818103600083015261342c81612e45565b9050919050565b6000602082019050818103600083015261344c81612f2b565b9050919050565b6000602082019050818103600083015261346c81612f6b565b9050919050565b60006020820190506134886000830184612fd1565b92915050565b6000604051905081810181811067ffffffffffffffff821117156134b5576134b461384b565b5b8060405250919050565b600067ffffffffffffffff8211156134da576134d961384b565b5b601f19601f8301169050602081019050919050565b60008190508160005260206000209050919050565b600081519050919050565b600081519050919050565b600082825260208201905092915050565b600082825260208201905092915050565b600081905092915050565b6000613552826136c6565b915061355d836136c6565b9250827fffffffffffffffffffffffffffffffffffffffffffffffffffffffffffffffff03821115613592576135916137be565b5b828201905092915050565b60006135a8826136c6565b91506135b3836136c6565b9250826135c3576135c26137ed565b5b828204905092915050565b60006135d9826136c6565b91506135e4836136c6565b9250817fffffffffffffffffffffffffffffffffffffffffffffffffffffffffffffffff048311821515161561361d5761361c6137be565b5b828202905092915050565b6000613633826136c6565b915061363e836136c6565b925082821015613651576136506137be565b5b828203905092915050565b6000613667826136a6565b9050919050565b60008115159050919050565b60007fffffffff0000000000000000000000000000000000000000000000000000000082169050919050565b600073ffffffffffffffffffffffffffffffffffffffff82169050919050565b6000819050919050565b82818337600083830152505050565b60005b838110156136fd5780820151818401526020810190506136e2565b8381111561370c576000848401525b50505050565b6000600282049050600182168061372a57607f821691505b6020821081141561373e5761373d61381c565b5b50919050565b600061374f826136c6565b91507fffffffffffffffffffffffffffffffffffffffffffffffffffffffffffffffff821415613782576137816137be565b5b600182019050919050565b6000613798826136c6565b91506137a3836136c6565b9250826137b3576137b26137ed565b5b828206905092915050565b7f4e487b7100000000000000000000000000000000000000000000000000000000600052601160045260246000fd5b7f4e487b7100000000000000000000000000000000000000000000000000000000600052601260045260246000fd5b7f4e487b7100000000000000000000000000000000000000000000000000000000600052602260045260246000fd5b7f4e487b7100000000000000000000000000000000000000000000000000000000600052604160045260246000fd5b6000601f19601f8301169050919050565b6138948161365c565b811461389f57600080fd5b50565b6138ab8161366e565b81146138b657600080fd5b50565b6138c28161367a565b81146138cd57600080fd5b50565b6138d9816136c6565b81146138e457600080fd5b5056fe416e204e465420772f20494420257320686173206265656e206d696e74656420746f2025734142434445464748494a4b4c4d4e4f505152535455565758595a6162636465666768696a6b6c6d6e6f707172737475767778797a303132333435363738392b2fa2646970667358221220dd0a4cbe235e6226a63718ccf52d8d805079611271230c33ad5b16dc21b57b7b64736f6c634300080000333c73766720786d6c6e733d27687474703a2f2f7777772e77332e6f72672f323030302f73766727207072657365727665417370656374526174696f3d27784d696e594d696e206d656574272076696577426f783d273020302033353020333530273e3c7374796c653e2e62617365207b2066696c6c3a2077686974653b20666f6e742d66616d696c793a2073657269663b20666f6e742d73697a653a20323470783b207d3c2f7374796c653e3c726563742077696474683d273130302527206865696768743d2731303025272066696c6c3d27626c61636b27202f3e3c7465787420783d273530252720793d273530252720636c6173733d27626173652720646f6d696e616e742d626173656c696e653d276d6964646c652720746578742d616e63686f723d276d6964646c65273e",
  "linkReferences": {},
  "deployedLinkReferences": {}
}